{
  "address": "0x5FbDB2315678afecb367f032d93F642f64180aa3",
  "abi": [
    {
      "inputs": [],
      "stateMutability": "nonpayable",
      "type": "constructor"
    },
    {
      "anonymous": false,
      "inputs": [
        {
          "indexed": true,
          "internalType": "address",
          "name": "owner",
          "type": "address"
        },
        {
          "indexed": true,
          "internalType": "address",
          "name": "approved",
          "type": "address"
        },
        {
          "indexed": true,
          "internalType": "uint256",
          "name": "tokenId",
          "type": "uint256"
        }
      ],
      "name": "Approval",
      "type": "event"
    },
    {
      "anonymous": false,
      "inputs": [
        {
          "indexed": true,
          "internalType": "address",
          "name": "owner",
          "type": "address"
        },
        {
          "indexed": true,
          "internalType": "address",
          "name": "operator",
          "type": "address"
        },
        {
          "indexed": false,
          "internalType": "bool",
          "name": "approved",
          "type": "bool"
        }
      ],
      "name": "ApprovalForAll",
      "type": "event"
    },
    {
      "anonymous": false,
      "inputs": [
        {
          "indexed": true,
          "internalType": "address",
          "name": "from",
          "type": "address"
        },
        {
          "indexed": true,
          "internalType": "address",
          "name": "to",
          "type": "address"
        },
        {
          "indexed": true,
          "internalType": "uint256",
          "name": "tokenId",
          "type": "uint256"
        }
      ],
      "name": "Transfer",
      "type": "event"
    },
    {
      "inputs": [
        {
          "internalType": "address",
          "name": "to",
          "type": "address"
        },
        {
          "internalType": "uint256",
          "name": "tokenId",
          "type": "uint256"
        }
      ],
      "name": "approve",
      "outputs": [],
      "stateMutability": "nonpayable",
      "type": "function"
    },
    {
      "inputs": [
        {
          "internalType": "address",
          "name": "owner",
          "type": "address"
        }
      ],
      "name": "balanceOf",
      "outputs": [
        {
          "internalType": "uint256",
          "name": "",
          "type": "uint256"
        }
      ],
      "stateMutability": "view",
      "type": "function"
    },
    {
      "inputs": [
        {
          "internalType": "uint256",
          "name": "tokenId",
          "type": "uint256"
        }
      ],
      "name": "getApproved",
      "outputs": [
        {
          "internalType": "address",
          "name": "",
          "type": "address"
        }
      ],
      "stateMutability": "view",
      "type": "function"
    },
    {
      "inputs": [
        {
          "internalType": "address",
          "name": "owner",
          "type": "address"
        },
        {
          "internalType": "address",
          "name": "operator",
          "type": "address"
        }
      ],
      "name": "isApprovedForAll",
      "outputs": [
        {
          "internalType": "bool",
          "name": "",
          "type": "bool"
        }
      ],
      "stateMutability": "view",
      "type": "function"
    },
    {
      "inputs": [
        {
          "internalType": "string",
          "name": "_tokenURI",
          "type": "string"
        }
      ],
      "name": "mint",
      "outputs": [
        {
          "internalType": "uint256",
          "name": "",
          "type": "uint256"
        }
      ],
      "stateMutability": "nonpayable",
      "type": "function"
    },
    {
      "inputs": [],
      "name": "name",
      "outputs": [
        {
          "internalType": "string",
          "name": "",
          "type": "string"
        }
      ],
      "stateMutability": "view",
      "type": "function"
    },
    {
      "inputs": [
        {
          "internalType": "uint256",
          "name": "tokenId",
          "type": "uint256"
        }
      ],
      "name": "ownerOf",
      "outputs": [
        {
          "internalType": "address",
          "name": "",
          "type": "address"
        }
      ],
      "stateMutability": "view",
      "type": "function"
    },
    {
      "inputs": [],
      "name": "s_tokenId",
      "outputs": [
        {
          "internalType": "uint256",
          "name": "",
          "type": "uint256"
        }
      ],
      "stateMutability": "view",
      "type": "function"
    },
    {
      "inputs": [
        {
          "internalType": "address",
          "name": "from",
          "type": "address"
        },
        {
          "internalType": "address",
          "name": "to",
          "type": "address"
        },
        {
          "internalType": "uint256",
          "name": "tokenId",
          "type": "uint256"
        }
      ],
      "name": "safeTransferFrom",
      "outputs": [],
      "stateMutability": "nonpayable",
      "type": "function"
    },
    {
      "inputs": [
        {
          "internalType": "address",
          "name": "from",
          "type": "address"
        },
        {
          "internalType": "address",
          "name": "to",
          "type": "address"
        },
        {
          "internalType": "uint256",
          "name": "tokenId",
          "type": "uint256"
        },
        {
          "internalType": "bytes",
          "name": "data",
          "type": "bytes"
        }
      ],
      "name": "safeTransferFrom",
      "outputs": [],
      "stateMutability": "nonpayable",
      "type": "function"
    },
    {
      "inputs": [
        {
          "internalType": "address",
          "name": "operator",
          "type": "address"
        },
        {
          "internalType": "bool",
          "name": "approved",
          "type": "bool"
        }
      ],
      "name": "setApprovalForAll",
      "outputs": [],
      "stateMutability": "nonpayable",
      "type": "function"
    },
    {
      "inputs": [
        {
          "internalType": "bytes4",
          "name": "interfaceId",
          "type": "bytes4"
        }
      ],
      "name": "supportsInterface",
      "outputs": [
        {
          "internalType": "bool",
          "name": "",
          "type": "bool"
        }
      ],
      "stateMutability": "view",
      "type": "function"
    },
    {
      "inputs": [],
      "name": "symbol",
      "outputs": [
        {
          "internalType": "string",
          "name": "",
          "type": "string"
        }
      ],
      "stateMutability": "view",
      "type": "function"
    },
    {
      "inputs": [
        {
          "internalType": "uint256",
          "name": "tokenId",
          "type": "uint256"
        }
      ],
      "name": "tokenURI",
      "outputs": [
        {
          "internalType": "string",
          "name": "",
          "type": "string"
        }
      ],
      "stateMutability": "view",
      "type": "function"
    },
    {
      "inputs": [
        {
          "internalType": "address",
          "name": "from",
          "type": "address"
        },
        {
          "internalType": "address",
          "name": "to",
          "type": "address"
        },
        {
          "internalType": "uint256",
          "name": "tokenId",
          "type": "uint256"
        }
      ],
      "name": "transferFrom",
      "outputs": [],
      "stateMutability": "nonpayable",
      "type": "function"
    }
  ],
  "transactionHash": "0xc5e76e7de9137c0adbcd74b9e7559079efddc7ee748a063507ae9ad8ccd6836a",
  "args": [],
  "numDeployments": 1,
  "solcInputHash": "2bf2593bfe51b881a2b66860148abe21",
  "bytecode": "0x60806040523480156200001157600080fd5b506040518060400160405280600381526020017f4e465400000000000000000000000000000000000000000000000000000000008152506040518060400160405280600381526020017f6e66740000000000000000000000000000000000000000000000000000000000815250816000908051906020019062000096929190620000b8565b508060019080519060200190620000af929190620000b8565b505050620001cd565b828054620000c69062000197565b90600052602060002090601f016020900481019282620000ea576000855562000136565b82601f106200010557805160ff191683800117855562000136565b8280016001018555821562000136579182015b828111156200013557825182559160200191906001019062000118565b5b50905062000145919062000149565b5090565b5b80821115620001645760008160009055506001016200014a565b5090565b7f4e487b7100000000000000000000000000000000000000000000000000000000600052602260045260246000fd5b60006002820490506001821680620001b057607f821691505b60208210811415620001c757620001c662000168565b5b50919050565b61291a80620001dd6000396000f3fe608060405234801561001057600080fd5b50600436106100f55760003560e01c80636352211e11610097578063b88d4fde11610066578063b88d4fde14610284578063c87b56dd146102a0578063d85d3d27146102d0578063e985e9c514610300576100f5565b80636352211e146101ea57806370a082311461021a57806395d89b411461024a578063a22cb46514610268576100f5565b8063095ea7b3116100d3578063095ea7b314610178578063171314f11461019457806323b872dd146101b257806342842e0e146101ce576100f5565b806301ffc9a7146100fa57806306fdde031461012a578063081812fc14610148575b600080fd5b610114600480360381019061010f91906118fd565b610330565b6040516101219190611945565b60405180910390f35b610132610412565b60405161013f91906119f9565b60405180910390f35b610162600480360381019061015d9190611a51565b6104a4565b60405161016f9190611abf565b60405180910390f35b610192600480360381019061018d9190611b06565b6104ea565b005b61019c610602565b6040516101a99190611b55565b60405180910390f35b6101cc60048036038101906101c79190611b70565b610608565b005b6101e860048036038101906101e39190611b70565b610668565b005b61020460048036038101906101ff9190611a51565b610688565b6040516102119190611abf565b60405180910390f35b610234600480360381019061022f9190611bc3565b61073a565b6040516102419190611b55565b60405180910390f35b6102526107f2565b60405161025f91906119f9565b60405180910390f35b610282600480360381019061027d9190611c1c565b610884565b005b61029e60048036038101906102999190611d91565b61089a565b005b6102ba60048036038101906102b59190611a51565b6108fc565b6040516102c791906119f9565b60405180910390f35b6102ea60048036038101906102e59190611eb5565b610a0f565b6040516102f79190611b55565b60405180910390f35b61031a60048036038101906103159190611efe565b610a48565b6040516103279190611945565b60405180910390f35b60007f80ac58cd000000000000000000000000000000000000000000000000000000007bffffffffffffffffffffffffffffffffffffffffffffffffffffffff1916827bffffffffffffffffffffffffffffffffffffffffffffffffffffffff191614806103fb57507f5b5e139f000000000000000000000000000000000000000000000000000000007bffffffffffffffffffffffffffffffffffffffffffffffffffffffff1916827bffffffffffffffffffffffffffffffffffffffffffffffffffffffff1916145b8061040b575061040a82610adc565b5b9050919050565b60606000805461042190611f6d565b80601f016020809104026020016040519081016040528092919081815260200182805461044d90611f6d565b801561049a5780601f1061046f5761010080835404028352916020019161049a565b820191906000526020600020905b81548152906001019060200180831161047d57829003601f168201915b5050505050905090565b60006104af82610b46565b6004600083815260200190815260200160002060009054906101000a900473ffffffffffffffffffffffffffffffffffffffff169050919050565b60006104f582610688565b90508073ffffffffffffffffffffffffffffffffffffffff168373ffffffffffffffffffffffffffffffffffffffff161415610566576040517f08c379a000000000000000000000000000000000000000000000000000000000815260040161055d90612011565b60405180910390fd5b8073ffffffffffffffffffffffffffffffffffffffff16610585610b91565b73ffffffffffffffffffffffffffffffffffffffff1614806105b457506105b3816105ae610b91565b610a48565b5b6105f3576040517f08c379a00000000000000000000000000000000000000000000000000000000081526004016105ea906120a3565b60405180910390fd5b6105fd8383610b99565b505050565b60075481565b610619610613610b91565b82610c52565b610658576040517f08c379a000000000000000000000000000000000000000000000000000000000815260040161064f90612135565b60405180910390fd5b610663838383610ce7565b505050565b6106838383836040518060200160405280600081525061089a565b505050565b6000806002600084815260200190815260200160002060009054906101000a900473ffffffffffffffffffffffffffffffffffffffff169050600073ffffffffffffffffffffffffffffffffffffffff168173ffffffffffffffffffffffffffffffffffffffff161415610731576040517f08c379a0000000000000000000000000000000000000000000000000000000008152600401610728906121a1565b60405180910390fd5b80915050919050565b60008073ffffffffffffffffffffffffffffffffffffffff168273ffffffffffffffffffffffffffffffffffffffff1614156107ab576040517f08c379a00000000000000000000000000000000000000000000000000000000081526004016107a290612233565b60405180910390fd5b600360008373ffffffffffffffffffffffffffffffffffffffff1673ffffffffffffffffffffffffffffffffffffffff168152602001908152602001600020549050919050565b60606001805461080190611f6d565b80601f016020809104026020016040519081016040528092919081815260200182805461082d90611f6d565b801561087a5780601f1061084f5761010080835404028352916020019161087a565b820191906000526020600020905b81548152906001019060200180831161085d57829003601f168201915b5050505050905090565b61089661088f610b91565b8383610f4e565b5050565b6108ab6108a5610b91565b83610c52565b6108ea576040517f08c379a00000000000000000000000000000000000000000000000000000000081526004016108e190612135565b60405180910390fd5b6108f6848484846110bb565b50505050565b606061090782610b46565b600060066000848152602001908152602001600020805461092790611f6d565b80601f016020809104026020016040519081016040528092919081815260200182805461095390611f6d565b80156109a05780601f10610975576101008083540402835291602001916109a0565b820191906000526020600020905b81548152906001019060200180831161098357829003601f168201915b5050505050905060006109b1611117565b90506000815114156109c7578192505050610a0a565b6000825111156109fc5780826040516020016109e492919061228f565b60405160208183030381529060405292505050610a0a565b610a058461112e565b925050505b919050565b60006001600754610a2091906122e2565b600781905550610a3233600754611196565b610a3e600754836111b4565b6007549050919050565b6000600560008473ffffffffffffffffffffffffffffffffffffffff1673ffffffffffffffffffffffffffffffffffffffff16815260200190815260200160002060008373ffffffffffffffffffffffffffffffffffffffff1673ffffffffffffffffffffffffffffffffffffffff16815260200190815260200160002060009054906101000a900460ff16905092915050565b60007f01ffc9a7000000000000000000000000000000000000000000000000000000007bffffffffffffffffffffffffffffffffffffffffffffffffffffffff1916827bffffffffffffffffffffffffffffffffffffffffffffffffffffffff1916149050919050565b610b4f81611228565b610b8e576040517f08c379a0000000000000000000000000000000000000000000000000000000008152600401610b85906121a1565b60405180910390fd5b50565b600033905090565b816004600083815260200190815260200160002060006101000a81548173ffffffffffffffffffffffffffffffffffffffff021916908373ffffffffffffffffffffffffffffffffffffffff160217905550808273ffffffffffffffffffffffffffffffffffffffff16610c0c83610688565b73ffffffffffffffffffffffffffffffffffffffff167f8c5be1e5ebec7d5bd14f71427d1e84f3dd0314c0f7b2291e5b200ac8c7c3b92560405160405180910390a45050565b600080610c5e83610688565b90508073ffffffffffffffffffffffffffffffffffffffff168473ffffffffffffffffffffffffffffffffffffffff161480610ca05750610c9f8185610a48565b5b80610cde57508373ffffffffffffffffffffffffffffffffffffffff16610cc6846104a4565b73ffffffffffffffffffffffffffffffffffffffff16145b91505092915050565b8273ffffffffffffffffffffffffffffffffffffffff16610d0782610688565b73ffffffffffffffffffffffffffffffffffffffff1614610d5d576040517f08c379a0000000000000000000000000000000000000000000000000000000008152600401610d54906123aa565b60405180910390fd5b600073ffffffffffffffffffffffffffffffffffffffff168273ffffffffffffffffffffffffffffffffffffffff161415610dcd576040517f08c379a0000000000000000000000000000000000000000000000000000000008152600401610dc49061243c565b60405180910390fd5b610dd8838383611294565b610de3600082610b99565b6001600360008573ffffffffffffffffffffffffffffffffffffffff1673ffffffffffffffffffffffffffffffffffffffff1681526020019081526020016000206000828254610e33919061245c565b925050819055506001600360008473ffffffffffffffffffffffffffffffffffffffff1673ffffffffffffffffffffffffffffffffffffffff1681526020019081526020016000206000828254610e8a91906122e2565b92505081905550816002600083815260200190815260200160002060006101000a81548173ffffffffffffffffffffffffffffffffffffffff021916908373ffffffffffffffffffffffffffffffffffffffff160217905550808273ffffffffffffffffffffffffffffffffffffffff168473ffffffffffffffffffffffffffffffffffffffff167fddf252ad1be2c89b69c2b068fc378daa952ba7f163c4a11628f55a4df523b3ef60405160405180910390a4610f49838383611299565b505050565b8173ffffffffffffffffffffffffffffffffffffffff168373ffffffffffffffffffffffffffffffffffffffff161415610fbd576040517f08c379a0000000000000000000000000000000000000000000000000000000008152600401610fb4906124dc565b60405180910390fd5b80600560008573ffffffffffffffffffffffffffffffffffffffff1673ffffffffffffffffffffffffffffffffffffffff16815260200190815260200160002060008473ffffffffffffffffffffffffffffffffffffffff1673ffffffffffffffffffffffffffffffffffffffff16815260200190815260200160002060006101000a81548160ff0219169083151502179055508173ffffffffffffffffffffffffffffffffffffffff168373ffffffffffffffffffffffffffffffffffffffff167f17307eab39ab6107e8899845ad3d59bd9653f200f220920489ca2b5937696c31836040516110ae9190611945565b60405180910390a3505050565b6110c6848484610ce7565b6110d28484848461129e565b611111576040517f08c379a00000000000000000000000000000000000000000000000000000000081526004016111089061256e565b60405180910390fd5b50505050565b606060405180602001604052806000815250905090565b606061113982610b46565b6000611143611117565b90506000815111611163576040518060200160405280600081525061118e565b8061116d84611435565b60405160200161117e92919061228f565b6040516020818303038152906040525b915050919050565b6111b0828260405180602001604052806000815250611596565b5050565b6111bd82611228565b6111fc576040517f08c379a00000000000000000000000000000000000000000000000000000000081526004016111f390612600565b60405180910390fd5b806006600084815260200190815260200160002090805190602001906112239291906117ee565b505050565b60008073ffffffffffffffffffffffffffffffffffffffff166002600084815260200190815260200160002060009054906101000a900473ffffffffffffffffffffffffffffffffffffffff1673ffffffffffffffffffffffffffffffffffffffff1614159050919050565b505050565b505050565b60006112bf8473ffffffffffffffffffffffffffffffffffffffff166115f1565b15611428578373ffffffffffffffffffffffffffffffffffffffff1663150b7a026112e8610b91565b8786866040518563ffffffff1660e01b815260040161130a9493929190612675565b602060405180830381600087803b15801561132457600080fd5b505af192505050801561135557506040513d601f19601f8201168201806040525081019061135291906126d6565b60015b6113d8573d8060008114611385576040519150601f19603f3d011682016040523d82523d6000602084013e61138a565b606091505b506000815114156113d0576040517f08c379a00000000000000000000000000000000000000000000000000000000081526004016113c79061256e565b60405180910390fd5b805181602001fd5b63150b7a0260e01b7bffffffffffffffffffffffffffffffffffffffffffffffffffffffff1916817bffffffffffffffffffffffffffffffffffffffffffffffffffffffff19161491505061142d565b600190505b949350505050565b6060600082141561147d576040518060400160405280600181526020017f30000000000000000000000000000000000000000000000000000000000000008152509050611591565b600082905060005b600082146114af57808061149890612703565b915050600a826114a8919061277b565b9150611485565b60008167ffffffffffffffff8111156114cb576114ca611c66565b5b6040519080825280601f01601f1916602001820160405280156114fd5781602001600182028036833780820191505090505b5090505b6000851461158a57600182611516919061245c565b9150600a8561152591906127ac565b603061153191906122e2565b60f81b818381518110611547576115466127dd565b5b60200101907effffffffffffffffffffffffffffffffffffffffffffffffffffffffffffff1916908160001a905350600a85611583919061277b565b9450611501565b8093505050505b919050565b6115a08383611614565b6115ad600084848461129e565b6115ec576040517f08c379a00000000000000000000000000000000000000000000000000000000081526004016115e39061256e565b60405180910390fd5b505050565b6000808273ffffffffffffffffffffffffffffffffffffffff163b119050919050565b600073ffffffffffffffffffffffffffffffffffffffff168273ffffffffffffffffffffffffffffffffffffffff161415611684576040517f08c379a000000000000000000000000000000000000000000000000000000000815260040161167b90612858565b60405180910390fd5b61168d81611228565b156116cd576040517f08c379a00000000000000000000000000000000000000000000000000000000081526004016116c4906128c4565b60405180910390fd5b6116d960008383611294565b6001600360008473ffffffffffffffffffffffffffffffffffffffff1673ffffffffffffffffffffffffffffffffffffffff168152602001908152602001600020600082825461172991906122e2565b92505081905550816002600083815260200190815260200160002060006101000a81548173ffffffffffffffffffffffffffffffffffffffff021916908373ffffffffffffffffffffffffffffffffffffffff160217905550808273ffffffffffffffffffffffffffffffffffffffff16600073ffffffffffffffffffffffffffffffffffffffff167fddf252ad1be2c89b69c2b068fc378daa952ba7f163c4a11628f55a4df523b3ef60405160405180910390a46117ea60008383611299565b5050565b8280546117fa90611f6d565b90600052602060002090601f01602090048101928261181c5760008555611863565b82601f1061183557805160ff1916838001178555611863565b82800160010185558215611863579182015b82811115611862578251825591602001919060010190611847565b5b5090506118709190611874565b5090565b5b8082111561188d576000816000905550600101611875565b5090565b6000604051905090565b600080fd5b600080fd5b60007fffffffff0000000000000000000000000000000000000000000000000000000082169050919050565b6118da816118a5565b81146118e557600080fd5b50565b6000813590506118f7816118d1565b92915050565b6000602082840312156119135761191261189b565b5b6000611921848285016118e8565b91505092915050565b60008115159050919050565b61193f8161192a565b82525050565b600060208201905061195a6000830184611936565b92915050565b600081519050919050565b600082825260208201905092915050565b60005b8381101561199a57808201518184015260208101905061197f565b838111156119a9576000848401525b50505050565b6000601f19601f8301169050919050565b60006119cb82611960565b6119d5818561196b565b93506119e581856020860161197c565b6119ee816119af565b840191505092915050565b60006020820190508181036000830152611a1381846119c0565b905092915050565b6000819050919050565b611a2e81611a1b565b8114611a3957600080fd5b50565b600081359050611a4b81611a25565b92915050565b600060208284031215611a6757611a6661189b565b5b6000611a7584828501611a3c565b91505092915050565b600073ffffffffffffffffffffffffffffffffffffffff82169050919050565b6000611aa982611a7e565b9050919050565b611ab981611a9e565b82525050565b6000602082019050611ad46000830184611ab0565b92915050565b611ae381611a9e565b8114611aee57600080fd5b50565b600081359050611b0081611ada565b92915050565b60008060408385031215611b1d57611b1c61189b565b5b6000611b2b85828601611af1565b9250506020611b3c85828601611a3c565b9150509250929050565b611b4f81611a1b565b82525050565b6000602082019050611b6a6000830184611b46565b92915050565b600080600060608486031215611b8957611b8861189b565b5b6000611b9786828701611af1565b9350506020611ba886828701611af1565b9250506040611bb986828701611a3c565b9150509250925092565b600060208284031215611bd957611bd861189b565b5b6000611be784828501611af1565b91505092915050565b611bf98161192a565b8114611c0457600080fd5b50565b600081359050611c1681611bf0565b92915050565b60008060408385031215611c3357611c3261189b565b5b6000611c4185828601611af1565b9250506020611c5285828601611c07565b9150509250929050565b600080fd5b600080fd5b7f4e487b7100000000000000000000000000000000000000000000000000000000600052604160045260246000fd5b611c9e826119af565b810181811067ffffffffffffffff82111715611cbd57611cbc611c66565b5b80604052505050565b6000611cd0611891565b9050611cdc8282611c95565b919050565b600067ffffffffffffffff821115611cfc57611cfb611c66565b5b611d05826119af565b9050602081019050919050565b82818337600083830152505050565b6000611d34611d2f84611ce1565b611cc6565b905082815260208101848484011115611d5057611d4f611c61565b5b611d5b848285611d12565b509392505050565b600082601f830112611d7857611d77611c5c565b5b8135611d88848260208601611d21565b91505092915050565b60008060008060808587031215611dab57611daa61189b565b5b6000611db987828801611af1565b9450506020611dca87828801611af1565b9350506040611ddb87828801611a3c565b925050606085013567ffffffffffffffff811115611dfc57611dfb6118a0565b5b611e0887828801611d63565b91505092959194509250565b600067ffffffffffffffff821115611e2f57611e2e611c66565b5b611e38826119af565b9050602081019050919050565b6000611e58611e5384611e14565b611cc6565b905082815260208101848484011115611e7457611e73611c61565b5b611e7f848285611d12565b509392505050565b600082601f830112611e9c57611e9b611c5c565b5b8135611eac848260208601611e45565b91505092915050565b600060208284031215611ecb57611eca61189b565b5b600082013567ffffffffffffffff811115611ee957611ee86118a0565b5b611ef584828501611e87565b91505092915050565b60008060408385031215611f1557611f1461189b565b5b6000611f2385828601611af1565b9250506020611f3485828601611af1565b9150509250929050565b7f4e487b7100000000000000000000000000000000000000000000000000000000600052602260045260246000fd5b60006002820490506001821680611f8557607f821691505b60208210811415611f9957611f98611f3e565b5b50919050565b7f4552433732313a20617070726f76616c20746f2063757272656e74206f776e6560008201527f7200000000000000000000000000000000000000000000000000000000000000602082015250565b6000611ffb60218361196b565b915061200682611f9f565b604082019050919050565b6000602082019050818103600083015261202a81611fee565b9050919050565b7f4552433732313a20617070726f76652063616c6c6572206973206e6f7420746f60008201527f6b656e206f776e6572206e6f7220617070726f76656420666f7220616c6c0000602082015250565b600061208d603e8361196b565b915061209882612031565b604082019050919050565b600060208201905081810360008301526120bc81612080565b9050919050565b7f4552433732313a2063616c6c6572206973206e6f7420746f6b656e206f776e6560008201527f72206e6f7220617070726f766564000000000000000000000000000000000000602082015250565b600061211f602e8361196b565b915061212a826120c3565b604082019050919050565b6000602082019050818103600083015261214e81612112565b9050919050565b7f4552433732313a20696e76616c696420746f6b656e2049440000000000000000600082015250565b600061218b60188361196b565b915061219682612155565b602082019050919050565b600060208201905081810360008301526121ba8161217e565b9050919050565b7f4552433732313a2061646472657373207a65726f206973206e6f74206120766160008201527f6c6964206f776e65720000000000000000000000000000000000000000000000602082015250565b600061221d60298361196b565b9150612228826121c1565b604082019050919050565b6000602082019050818103600083015261224c81612210565b9050919050565b600081905092915050565b600061226982611960565b6122738185612253565b935061228381856020860161197c565b80840191505092915050565b600061229b828561225e565b91506122a7828461225e565b91508190509392505050565b7f4e487b7100000000000000000000000000000000000000000000000000000000600052601160045260246000fd5b60006122ed82611a1b565b91506122f883611a1b565b9250827fffffffffffffffffffffffffffffffffffffffffffffffffffffffffffffffff0382111561232d5761232c6122b3565b5b828201905092915050565b7f4552433732313a207472616e736665722066726f6d20696e636f72726563742060008201527f6f776e6572000000000000000000000000000000000000000000000000000000602082015250565b600061239460258361196b565b915061239f82612338565b604082019050919050565b600060208201905081810360008301526123c381612387565b9050919050565b7f4552433732313a207472616e7366657220746f20746865207a65726f2061646460008201527f7265737300000000000000000000000000000000000000000000000000000000602082015250565b600061242660248361196b565b9150612431826123ca565b604082019050919050565b6000602082019050818103600083015261245581612419565b9050919050565b600061246782611a1b565b915061247283611a1b565b925082821015612485576124846122b3565b5b828203905092915050565b7f4552433732313a20617070726f766520746f2063616c6c657200000000000000600082015250565b60006124c660198361196b565b91506124d182612490565b602082019050919050565b600060208201905081810360008301526124f5816124b9565b9050919050565b7f4552433732313a207472616e7366657220746f206e6f6e20455243373231526560008201527f63656976657220696d706c656d656e7465720000000000000000000000000000602082015250565b600061255860328361196b565b9150612563826124fc565b604082019050919050565b600060208201905081810360008301526125878161254b565b9050919050565b7f45524337323155524953746f726167653a2055524920736574206f66206e6f6e60008201527f6578697374656e7420746f6b656e000000000000000000000000000000000000602082015250565b60006125ea602e8361196b565b91506125f58261258e565b604082019050919050565b60006020820190508181036000830152612619816125dd565b9050919050565b600081519050919050565b600082825260208201905092915050565b600061264782612620565b612651818561262b565b935061266181856020860161197c565b61266a816119af565b840191505092915050565b600060808201905061268a6000830187611ab0565b6126976020830186611ab0565b6126a46040830185611b46565b81810360608301526126b6818461263c565b905095945050505050565b6000815190506126d0816118d1565b92915050565b6000602082840312156126ec576126eb61189b565b5b60006126fa848285016126c1565b91505092915050565b600061270e82611a1b565b91507fffffffffffffffffffffffffffffffffffffffffffffffffffffffffffffffff821415612741576127406122b3565b5b600182019050919050565b7f4e487b7100000000000000000000000000000000000000000000000000000000600052601260045260246000fd5b600061278682611a1b565b915061279183611a1b565b9250826127a1576127a061274c565b5b828204905092915050565b60006127b782611a1b565b91506127c283611a1b565b9250826127d2576127d161274c565b5b828206905092915050565b7f4e487b7100000000000000000000000000000000000000000000000000000000600052603260045260246000fd5b7f4552433732313a206d696e7420746f20746865207a65726f2061646472657373600082015250565b600061284260208361196b565b915061284d8261280c565b602082019050919050565b6000602082019050818103600083015261287181612835565b9050919050565b7f4552433732313a20746f6b656e20616c7265616479206d696e74656400000000600082015250565b60006128ae601c8361196b565b91506128b982612878565b602082019050919050565b600060208201905081810360008301526128dd816128a1565b905091905056fea26469706673582212208a8a8f6ab7e0b5ffca2af889b8e8cbf7220c9cb87819e9750d74acd31ba5342064736f6c63430008090033",
  "devdoc": {
    "kind": "dev",
    "methods": {
      "approve(address,uint256)": {
        "details": "See {IERC721-approve}."
      },
      "balanceOf(address)": {
        "details": "See {IERC721-balanceOf}."
      },
      "getApproved(uint256)": {
        "details": "See {IERC721-getApproved}."
      },
      "isApprovedForAll(address,address)": {
        "details": "See {IERC721-isApprovedForAll}."
      },
      "name()": {
        "details": "See {IERC721Metadata-name}."
      },
      "ownerOf(uint256)": {
        "details": "See {IERC721-ownerOf}."
      },
      "safeTransferFrom(address,address,uint256)": {
        "details": "See {IERC721-safeTransferFrom}."
      },
      "safeTransferFrom(address,address,uint256,bytes)": {
        "details": "See {IERC721-safeTransferFrom}."
      },
      "setApprovalForAll(address,bool)": {
        "details": "See {IERC721-setApprovalForAll}."
      },
      "supportsInterface(bytes4)": {
        "details": "See {IERC165-supportsInterface}."
      },
      "symbol()": {
        "details": "See {IERC721Metadata-symbol}."
      },
      "tokenURI(uint256)": {
        "details": "See {IERC721Metadata-tokenURI}."
      },
      "transferFrom(address,address,uint256)": {
        "details": "See {IERC721-transferFrom}."
      }
    },
    "version": 1
  },
  "userdoc": {
    "kind": "user",
    "methods": {},
    "version": 1
  },
  "storageLayout": {
    "storage": [
      {
        "astId": 25,
        "contract": "contracts/NFT.sol:NFT",
        "label": "_name",
        "offset": 0,
        "slot": "0",
        "type": "t_string_storage"
      },
      {
        "astId": 27,
        "contract": "contracts/NFT.sol:NFT",
        "label": "_symbol",
        "offset": 0,
        "slot": "1",
        "type": "t_string_storage"
      },
      {
        "astId": 31,
        "contract": "contracts/NFT.sol:NFT",
        "label": "_owners",
        "offset": 0,
        "slot": "2",
        "type": "t_mapping(t_uint256,t_address)"
      },
      {
        "astId": 35,
        "contract": "contracts/NFT.sol:NFT",
        "label": "_balances",
        "offset": 0,
        "slot": "3",
        "type": "t_mapping(t_address,t_uint256)"
      },
      {
        "astId": 39,
        "contract": "contracts/NFT.sol:NFT",
        "label": "_tokenApprovals",
        "offset": 0,
        "slot": "4",
        "type": "t_mapping(t_uint256,t_address)"
      },
      {
        "astId": 45,
        "contract": "contracts/NFT.sol:NFT",
        "label": "_operatorApprovals",
        "offset": 0,
        "slot": "5",
        "type": "t_mapping(t_address,t_mapping(t_address,t_bool))"
      },
      {
        "astId": 1013,
        "contract": "contracts/NFT.sol:NFT",
        "label": "_tokenURIs",
        "offset": 0,
        "slot": "6",
        "type": "t_mapping(t_uint256,t_string_storage)"
      },
      {
        "astId": 1738,
        "contract": "contracts/NFT.sol:NFT",
        "label": "s_tokenId",
        "offset": 0,
        "slot": "7",
        "type": "t_uint256"
      }
    ],
    "types": {
      "t_address": {
        "encoding": "inplace",
        "label": "address",
        "numberOfBytes": "20"
      },
      "t_bool": {
        "encoding": "inplace",
        "label": "bool",
        "numberOfBytes": "1"
      },
      "t_mapping(t_address,t_bool)": {
        "encoding": "mapping",
        "key": "t_address",
        "label": "mapping(address => bool)",
        "numberOfBytes": "32",
        "value": "t_bool"
      },
      "t_mapping(t_address,t_mapping(t_address,t_bool))": {
        "encoding": "mapping",
        "key": "t_address",
        "label": "mapping(address => mapping(address => bool))",
        "numberOfBytes": "32",
        "value": "t_mapping(t_address,t_bool)"
      },
      "t_mapping(t_address,t_uint256)": {
        "encoding": "mapping",
        "key": "t_address",
        "label": "mapping(address => uint256)",
        "numberOfBytes": "32",
        "value": "t_uint256"
      },
      "t_mapping(t_uint256,t_address)": {
        "encoding": "mapping",
        "key": "t_uint256",
        "label": "mapping(uint256 => address)",
        "numberOfBytes": "32",
        "value": "t_address"
      },
      "t_mapping(t_uint256,t_string_storage)": {
        "encoding": "mapping",
        "key": "t_uint256",
        "label": "mapping(uint256 => string)",
        "numberOfBytes": "32",
        "value": "t_string_storage"
      },
      "t_string_storage": {
        "encoding": "bytes",
        "label": "string",
        "numberOfBytes": "32"
      },
      "t_uint256": {
        "encoding": "inplace",
        "label": "uint256",
        "numberOfBytes": "32"
      }
    }
  }
}